{
  "contractName": "HashTimeLock",
  "abi": [
    {
      "anonymous": false,
      "inputs": [
        {
          "indexed": false,
          "internalType": "uint256",
          "name": "inputAmount",
          "type": "uint256"
        },
        {
          "indexed": false,
          "internalType": "uint256",
          "name": "outputAmount",
          "type": "uint256"
        },
        {
          "indexed": false,
          "internalType": "uint256",
          "name": "expiration",
          "type": "uint256"
        },
        {
          "indexed": false,
          "internalType": "bytes32",
          "name": "id",
          "type": "bytes32"
        },
        {
          "indexed": false,
          "internalType": "bytes32",
          "name": "hashLock",
          "type": "bytes32"
        },
        {
          "indexed": true,
          "internalType": "address",
          "name": "tokenAddress",
          "type": "address"
        },
        {
          "indexed": true,
          "internalType": "address",
          "name": "sender",
          "type": "address"
        },
        {
          "indexed": true,
          "internalType": "address",
          "name": "receiver",
          "type": "address"
        },
        {
          "indexed": false,
          "internalType": "string",
          "name": "outputNetwork",
          "type": "string"
        },
        {
          "indexed": false,
          "internalType": "string",
          "name": "outputAddress",
          "type": "string"
        }
      ],
      "name": "NewContract",
      "type": "event"
    },
    {
      "anonymous": false,
      "inputs": [
        {
          "indexed": false,
          "internalType": "bytes32",
          "name": "id",
          "type": "bytes32"
        },
        {
          "indexed": false,
          "internalType": "bytes32",
          "name": "hashLock",
          "type": "bytes32"
        },
        {
          "indexed": true,
          "internalType": "address",
          "name": "tokenAddress",
          "type": "address"
        },
        {
          "indexed": true,
          "internalType": "address",
          "name": "sender",
          "type": "address"
        },
        {
          "indexed": true,
          "internalType": "address",
          "name": "receiver",
          "type": "address"
        }
      ],
      "name": "Refund",
      "type": "event"
    },
    {
      "anonymous": false,
      "inputs": [
        {
          "indexed": false,
          "internalType": "bytes32",
          "name": "id",
          "type": "bytes32"
        },
        {
          "indexed": false,
          "internalType": "bytes32",
          "name": "secret",
          "type": "bytes32"
        },
        {
          "indexed": false,
          "internalType": "bytes32",
          "name": "hashLock",
          "type": "bytes32"
        },
        {
          "indexed": true,
          "internalType": "address",
          "name": "tokenAddress",
          "type": "address"
        },
        {
          "indexed": true,
          "internalType": "address",
          "name": "sender",
          "type": "address"
        },
        {
          "indexed": true,
          "internalType": "address",
          "name": "receiver",
          "type": "address"
        }
      ],
      "name": "Withdraw",
      "type": "event"
    },
    {
      "constant": true,
      "inputs": [
        {
          "internalType": "bytes32",
          "name": "",
          "type": "bytes32"
        }
      ],
      "name": "contracts",
      "outputs": [
        {
          "internalType": "uint256",
          "name": "inputAmount",
          "type": "uint256"
        },
        {
          "internalType": "uint256",
          "name": "outputAmount",
          "type": "uint256"
        },
        {
          "internalType": "uint256",
          "name": "expiration",
          "type": "uint256"
        },
        {
          "internalType": "bytes32",
          "name": "hashLock",
          "type": "bytes32"
        },
        {
          "internalType": "enum HashTimeLock.SwapStatus",
          "name": "status",
          "type": "uint8"
        },
        {
          "internalType": "address",
          "name": "tokenAddress",
          "type": "address"
        },
        {
          "internalType": "address",
          "name": "sender",
          "type": "address"
        },
        {
          "internalType": "address",
          "name": "receiver",
          "type": "address"
        },
        {
          "internalType": "string",
          "name": "outputNetwork",
          "type": "string"
        },
        {
          "internalType": "string",
          "name": "outputAddress",
          "type": "string"
        }
      ],
      "payable": false,
      "stateMutability": "view",
      "type": "function"
    },
    {
      "constant": false,
      "inputs": [
        {
          "internalType": "uint256",
          "name": "inputAmount",
          "type": "uint256"
        },
        {
          "internalType": "uint256",
          "name": "outputAmount",
          "type": "uint256"
        },
        {
          "internalType": "uint256",
          "name": "expiration",
          "type": "uint256"
        },
        {
          "internalType": "bytes32",
          "name": "hashLock",
          "type": "bytes32"
        },
        {
          "internalType": "address",
          "name": "tokenAddress",
          "type": "address"
        },
        {
          "internalType": "address",
          "name": "receiver",
          "type": "address"
        },
        {
          "internalType": "string",
          "name": "outputNetwork",
          "type": "string"
        },
        {
          "internalType": "string",
          "name": "outputAddress",
          "type": "string"
        }
      ],
      "name": "newContract",
      "outputs": [],
      "payable": false,
      "stateMutability": "nonpayable",
      "type": "function"
    },
    {
      "constant": false,
      "inputs": [
        {
          "internalType": "bytes32",
          "name": "id",
          "type": "bytes32"
        },
        {
          "internalType": "bytes32",
          "name": "secret",
          "type": "bytes32"
        },
        {
          "internalType": "address",
          "name": "tokenAddress",
          "type": "address"
        }
      ],
      "name": "withdraw",
      "outputs": [
        {
          "internalType": "bool",
          "name": "",
          "type": "bool"
        }
      ],
      "payable": false,
      "stateMutability": "nonpayable",
      "type": "function"
    },
    {
      "constant": false,
      "inputs": [
        {
          "internalType": "bytes32",
          "name": "id",
          "type": "bytes32"
        },
        {
          "internalType": "address",
          "name": "tokenAddress",
          "type": "address"
        }
      ],
      "name": "refund",
      "outputs": [
        {
          "internalType": "bool",
          "name": "",
          "type": "bool"
        }
      ],
      "payable": false,
      "stateMutability": "nonpayable",
      "type": "function"
    },
    {
      "constant": true,
      "inputs": [
        {
          "internalType": "bytes32[]",
          "name": "ids",
          "type": "bytes32[]"
        }
      ],
      "name": "getStatus",
      "outputs": [
        {
          "internalType": "uint8[]",
          "name": "",
          "type": "uint8[]"
        }
      ],
      "payable": false,
      "stateMutability": "view",
      "type": "function"
    },
    {
      "constant": true,
      "inputs": [
        {
          "internalType": "bytes32",
          "name": "id",
          "type": "bytes32"
        }
      ],
      "name": "getStatus",
      "outputs": [
        {
          "internalType": "uint8",
          "name": "result",
          "type": "uint8"
        }
      ],
      "payable": false,
      "stateMutability": "view",
      "type": "function"
    }
  ],
  "bytecode": "0x608060405234801561001057600080fd5b50611bab806100206000396000f3fe608060405234801561001057600080fd5b50600436106100625760003560e01c80632f21a6631461006757806345b4032c146100905780635de28ae0146100b0578063a65b9a60146100d0578063d2fd8b76146100e3578063ec56a373146100f8575b600080fd5b61007a61007536600461128a565b610121565b6040516100879190611825565b60405180910390f35b6100a361009e366004611319565b6101a9565b6040516100879190611836565b6100c36100be3660046112dd565b6104ed565b6040516100879190611a14565b6100a36100de366004611353565b610721565b6100f66100f13660046113a0565b610ac2565b005b61010b6101063660046112dd565b610d6f565b6040516100879a99989796959493929190611972565b606080825160405190808252806020026020018201604052801561014f578160200160208202803883390190505b50905060005b83518110156101a05761017a84828151811061016d57fe5b60200260200101516104ed565b82828151811061018657fe5b60ff90921660209283029190910190910152600101610155565b5090505b919050565b600082826101b561108a565b60008084815260200190815260200160002060405180610140016040529081600082015481526020016001820154815260200160028201548152602001600382015481526020016004820160009054906101000a900460ff16600481111561021957fe5b600481111561022457fe5b81526004820154610100908190046001600160a01b0390811660208085019190915260058501548216604080860191909152600686015490921660608501526007850180548351600260018316159096026000190190911694909404601f810183900483028501830190935282845260809094019391908301828280156102ec5780601f106102c1576101008083540402835291602001916102ec565b820191906000526020600020905b8154815290600101906020018083116102cf57829003601f168201915b505050918352505060088201805460408051602060026001851615610100026000190190941693909304601f81018490048402820184019092528181529382019392918301828280156103805780601f1061035557610100808354040283529160200191610380565b820191906000526020600020905b81548152906001019060200180831161036357829003601f168201915b5050505050815250509050816001600160a01b03168160a001516001600160a01b0316146103c95760405162461bcd60e51b81526004016103c09061187d565b60405180910390fd5b6001816080015160048111156103db57fe5b146103f85760405162461bcd60e51b81526004016103c09061189d565b428160400151111561041c5760405162461bcd60e51b81526004016103c0906118ad565b60c08101516001600160a01b031633146104485760405162461bcd60e51b81526004016103c0906118bd565b600086815260208190526040902060048101805460ff1916600217905560058101548154610484916001600160a01b0389811692911690610ee1565b6006810154600582015460038301546040516001600160a01b0393841693928316928a16917f0d4cdc2fe2a785f03bf5481e13bee5cdcb7743166bcadafebfd3f09db6108117916104d6918d91611844565b60405180910390a460019450505b50505092915050565b60006104f761108a565b60008084815260200190815260200160002060405180610140016040529081600082015481526020016001820154815260200160028201548152602001600382015481526020016004820160009054906101000a900460ff16600481111561055b57fe5b600481111561056657fe5b81526004820154610100908190046001600160a01b0390811660208085019190915260058501548216604080860191909152600686015490921660608501526007850180548351600260018316159096026000190190911694909404601f8101839004830285018301909352828452608090940193919083018282801561062e5780601f106106035761010080835404028352916020019161062e565b820191906000526020600020905b81548152906001019060200180831161061157829003601f168201915b505050918352505060088201805460408051602060026001851615610100026000190190941693909304601f81018490048402820184019092528181529382019392918301828280156106c25780601f10610697576101008083540402835291602001916106c2565b820191906000526020600020905b8154815290600101906020018083116106a557829003601f168201915b5050505050815250509050600160048111156106da57fe5b816080015160048111156106ea57fe5b1480156106fa5750428160400151105b15610708576004915061071b565b8060800151600481111561071857fe5b91505b50919050565b600083838361072e61108a565b60008085815260200190815260200160002060405180610140016040529081600082015481526020016001820154815260200160028201548152602001600382015481526020016004820160009054906101000a900460ff16600481111561079257fe5b600481111561079d57fe5b81526004820154610100908190046001600160a01b0390811660208085019190915260058501548216604080860191909152600686015490921660608501526007850180548351600260018316159096026000190190911694909404601f810183900483028501830190935282845260809094019391908301828280156108655780601f1061083a57610100808354040283529160200191610865565b820191906000526020600020905b81548152906001019060200180831161084857829003601f168201915b505050918352505060088201805460408051602060026001851615610100026000190190941693909304601f81018490048402820184019092528181529382019392918301828280156108f95780601f106108ce576101008083540402835291602001916108f9565b820191906000526020600020905b8154815290600101906020018083116108dc57829003601f168201915b5050505050815250509050816001600160a01b03168160a001516001600160a01b0316146109395760405162461bcd60e51b81526004016103c09061187d565b60018160800151600481111561094b57fe5b146109685760405162461bcd60e51b81526004016103c09061189d565b4281604001511161098b5760405162461bcd60e51b81526004016103c0906118ad565b60028360405160200161099e91906117ba565b60408051601f19818403018152908290526109b8916117cf565b602060405180830381855afa1580156109d5573d6000803e3d6000fd5b5050506040513d601f19601f820116820180604052506109f891908101906112fb565b816060015114610a1a5760405162461bcd60e51b81526004016103c09061186d565b600088815260208190526040902060048101805460ff1916600317905560068101548154610a56916001600160a01b038a811692911690610ee1565b6006810154600582015460038301546040516001600160a01b0393841693928316928b16917fbab3eb11a71b2cd82a010d4d5b2c3df5cd25ee8c9f1a75baff879a1b87942cb891610aab918f918f9190611852565b60405180910390a450600198975050505050505050565b33428711610ae25760405162461bcd60e51b81526004016103c0906118ad565b60008911610b025760405162461bcd60e51b81526004016103c0906118dd565b610b1d6001600160a01b03861682308c63ffffffff610f3f16565b6000600282868c8a8c604051602001610b3a959493929190611761565b60408051601f1981840301815290829052610b54916117cf565b602060405180830381855afa158015610b71573d6000803e3d6000fd5b5050506040513d601f19601f82011682018060405250610b9491908101906112fb565b90506040518061014001604052808b81526020018a815260200189815260200188815260200160016004811115610bc757fe5b8152602001876001600160a01b03168152602001836001600160a01b03168152602001866001600160a01b03168152602001858152602001848152506000808381526020019081526020016000206000820151816000015560208201518160010155604082015181600201556060820151816003015560808201518160040160006101000a81548160ff02191690836004811115610c6157fe5b021790555060a08201516004820180546001600160a01b03928316610100908102610100600160a81b03199092169190911790915560c08401516005840180549184166001600160a01b031992831617905560e0850151600685018054919094169116179091558201518051610ce19160078401916020909101906110f8565b506101208201518051610cfe9160088401916020909101906110f8565b50905050846001600160a01b0316826001600160a01b0316876001600160a01b03167f448581ece7da63e54a320119f9f2b80c868a954c441e70c88ecdfc95919751248d8d8d878e8c8c604051610d5b97969594939291906118fd565b60405180910390a450505050505050505050565b600060208181529181526040908190208054600180830154600280850154600386015460048701546005880154600689015460078a0180548c516101009a8216158b026000190190911697909704601f81018e90048e0288018e01909c528b8752989b969a9499939860ff8416989093046001600160a01b039081169792811696911694909291830182828015610e475780601f10610e1c57610100808354040283529160200191610e47565b820191906000526020600020905b815481529060010190602001808311610e2a57829003601f168201915b5050505060088301805460408051602060026001851615610100026000190190941693909304601f8101849004840282018401909252818152949594935090830182828015610ed75780601f10610eac57610100808354040283529160200191610ed7565b820191906000526020600020905b815481529060010190602001808311610eba57829003601f168201915b505050505090508a565b604051610f3a90849063a9059cbb60e01b90610f03908690869060240161180a565b60408051601f198184030181529190526020810180516001600160e01b03166001600160e01b031990931692909217909152610f69565b505050565b604051610f639085906323b872dd60e01b90610f03908790879087906024016117e2565b50505050565b610f7b826001600160a01b031661104e565b610f975760405162461bcd60e51b81526004016103c0906118ed565b60006060836001600160a01b031683604051610fb391906117cf565b6000604051808303816000865af19150503d8060008114610ff0576040519150601f19603f3d011682016040523d82523d6000602084013e610ff5565b606091505b5091509150816110175760405162461bcd60e51b81526004016103c09061188d565b805115610f63578080602001905161103291908101906112bf565b610f635760405162461bcd60e51b81526004016103c0906118cd565b6000813f7fc5d2460186f7233c927e7db2dcc703c0e500b653ca82273b7bfad8045d85a47081158015906110825750808214155b949350505050565b604080516101408101825260008082526020820181905291810182905260608101829052906080820190815260200160006001600160a01b0316815260200160006001600160a01b0316815260200160006001600160a01b0316815260200160608152602001606081525090565b828054600181600116156101000203166002900490600052602060002090601f016020900481019282601f1061113957805160ff1916838001178555611166565b82800160010185558215611166579182015b8281111561116657825182559160200191906001019061114b565b50611172929150611176565b5090565b61119091905b80821115611172576000815560010161117c565b90565b803561119e81611b42565b92915050565b600082601f8301126111b557600080fd5b81356111c86111c382611a49565b611a22565b915081818352602084019350602081019050838560208402820111156111ed57600080fd5b60005b838110156112195781611203888261122e565b84525060209283019291909101906001016111f0565b5050505092915050565b805161119e81611b56565b803561119e81611b5f565b805161119e81611b5f565b600082601f83011261125557600080fd5b81356112636111c382611a6a565b9150808252602083016020830185838301111561127f57600080fd5b6104e4838284611adc565b60006020828403121561129c57600080fd5b813567ffffffffffffffff8111156112b357600080fd5b611082848285016111a4565b6000602082840312156112d157600080fd5b60006110828484611223565b6000602082840312156112ef57600080fd5b6000611082848461122e565b60006020828403121561130d57600080fd5b60006110828484611239565b6000806040838503121561132c57600080fd5b6000611338858561122e565b925050602061134985828601611193565b9150509250929050565b60008060006060848603121561136857600080fd5b6000611374868661122e565b93505060206113858682870161122e565b925050604061139686828701611193565b9150509250925092565b600080600080600080600080610100898b0312156113bd57600080fd5b60006113c98b8b61122e565b98505060206113da8b828c0161122e565b97505060406113eb8b828c0161122e565b96505060606113fc8b828c0161122e565b955050608061140d8b828c01611193565b94505060a061141e8b828c01611193565b93505060c089013567ffffffffffffffff81111561143b57600080fd5b6114478b828c01611244565b92505060e089013567ffffffffffffffff81111561146457600080fd5b6114708b828c01611244565b9150509295985092959890939650565b600061148c8383611758565b505060200190565b61149d81611aa5565b82525050565b61149d6114af82611aa5565b611b14565b60006114bf82611a98565b6114c98185611a9c565b93506114d483611a92565b8060005b838110156115025781516114ec8882611480565b97506114f783611a92565b9250506001016114d8565b509495945050505050565b61149d81611ab0565b61149d81611190565b61149d61152b82611190565b611190565b600061153b82611a98565b61154581856101a4565b9350611555818560208601611ae8565b9290920192915050565b61149d81611ad1565b600061157382611a98565b61157d8185611a9c565b935061158d818560208601611ae8565b61159681611b25565b9093019392505050565b60006115ad600e83611a9c565b6d1253959053125117d4d150d4915560921b815260200192915050565b60006115d7600d83611a9c565b6c24a72b20a624a22faa27a5a2a760991b815260200192915050565b6000611600602083611a9c565b7f5361666545524332303a206c6f772d6c6576656c2063616c6c206661696c6564815260200192915050565b6000611639600f83611a9c565b6e535741505f4e4f545f41435449564560881b815260200192915050565b6000611664600c83611a9c565b6b494e56414c49445f54494d4560a01b815260200192915050565b600061168c600e83611a9c565b6d24a72b20a624a22fa9a2a72222a960911b815260200192915050565b60006116b6602a83611a9c565b7f5361666545524332303a204552433230206f7065726174696f6e20646964206e8152691bdd081cdd58d8d9595960b21b602082015260400192915050565b6000611702600e83611a9c565b6d1253959053125117d05353d5539560921b815260200192915050565b600061172c601f83611a9c565b7f5361666545524332303a2063616c6c20746f206e6f6e2d636f6e747261637400815260200192915050565b61149d81611acb565b600061176d82886114a3565b60148201915061177d82876114a3565b60148201915061178d828661151f565b60208201915061179d828561151f565b6020820191506117ad828461151f565b5060200195945050505050565b60006117c6828461151f565b50602001919050565b60006117db8284611530565b9392505050565b606081016117f08286611494565b6117fd6020830185611494565b6110826040830184611516565b604081016118188285611494565b6117db6020830184611516565b602080825281016117db81846114b4565b6020810161119e828461150d565b604081016118188285611516565b606081016118608286611516565b6117fd6020830185611516565b6020808252810161119e816115a0565b6020808252810161119e816115ca565b6020808252810161119e816115f3565b6020808252810161119e8161162c565b6020808252810161119e81611657565b6020808252810161119e8161167f565b6020808252810161119e816116a9565b6020808252810161119e816116f5565b6020808252810161119e8161171f565b60e0810161190b828a611516565b6119186020830189611516565b6119256040830188611516565b6119326060830187611516565b61193f6080830186611516565b81810360a08301526119518185611568565b905081810360c08301526119658184611568565b9998505050505050505050565b6101408101611981828d611516565b61198e602083018c611516565b61199b604083018b611516565b6119a8606083018a611516565b6119b5608083018961155f565b6119c260a0830188611494565b6119cf60c0830187611494565b6119dc60e0830186611494565b8181036101008301526119ef8185611568565b9050818103610120830152611a048184611568565b9c9b505050505050505050505050565b6020810161119e8284611758565b60405181810167ffffffffffffffff81118282101715611a4157600080fd5b604052919050565b600067ffffffffffffffff821115611a6057600080fd5b5060209081020190565b600067ffffffffffffffff821115611a8157600080fd5b506020601f91909101601f19160190565b60200190565b5190565b90815260200190565b600061119e82611abf565b151590565b806101a481611b35565b6001600160a01b031690565b60ff1690565b600061119e82611ab5565b82818337506000910152565b60005b83811015611b03578181015183820152602001611aeb565b83811115610f635750506000910152565b600061119e82600061119e82611b2f565b601f01601f191690565b60601b90565b60058110611b3f57fe5b50565b611b4b81611aa5565b8114611b3f57600080fd5b611b4b81611ab0565b611b4b8161119056fea365627a7a7231582015953be53b6ed15ab7d010397b59f9c0ccda3f3e043a6e26ea7ff14e3ad1657f6c6578706572696d656e74616cf564736f6c63430005100040",
  "source": "pragma experimental ABIEncoderV2;\npragma solidity >=0.5.5 <0.6.0;\n\nimport \"@openzeppelin/contracts/token/ERC20/SafeERC20.sol\";\n\ncontract HashTimeLock {\n  using SafeERC20 for IERC20;\n\n  mapping(bytes32 => LockContract) public contracts;\n\n  enum SwapStatus { INVALID, ACTIVE, REFUNDED, WITHDRAWN, EXPIRED }\n\n  struct LockContract {\n    uint256 inputAmount;\n    uint256 outputAmount;\n    uint256 expiration;\n    bytes32 hashLock;\n    SwapStatus status;\n    address tokenAddress;\n    address sender;\n    address receiver;\n    string outputNetwork;\n    string outputAddress;\n  }\n\n  event Withdraw(\n    bytes32 id,\n    bytes32 secret,\n    bytes32 hashLock,\n    address indexed tokenAddress,\n    address indexed sender,\n    address indexed receiver\n  );\n\n  event Refund(\n    bytes32 id,\n    bytes32 hashLock,\n    address indexed tokenAddress,\n    address indexed sender,\n    address indexed receiver\n  );\n\n  event NewContract(\n    uint256 inputAmount,\n    uint256 outputAmount,\n    uint256 expiration,\n    bytes32 id,\n    bytes32 hashLock,\n    address indexed tokenAddress,\n    address indexed sender,\n    address indexed receiver,\n    string outputNetwork,\n    string outputAddress\n  );\n\n  modifier withdrawable(bytes32 id, bytes32 secret, address tokenAddress) {\n    LockContract memory tempContract = contracts[id];\n    require(tempContract.tokenAddress == tokenAddress, 'INVALID_TOKEN');\n    require(tempContract.status == SwapStatus.ACTIVE, 'SWAP_NOT_ACTIVE');\n    require(tempContract.expiration > block.timestamp, 'INVALID_TIME');\n    require(\n      tempContract.hashLock == sha256(abi.encodePacked(secret)),\n      'INVALID_SECRET'\n    );\n    _;\n  }\n\n  modifier refundable(bytes32 id, address tokenAddress) {\n    LockContract memory tempContract = contracts[id];\n    require(tempContract.tokenAddress == tokenAddress, 'INVALID_TOKEN');\n    require(tempContract.status == SwapStatus.ACTIVE, 'SWAP_NOT_ACTIVE');\n    require(tempContract.expiration <= block.timestamp, 'INVALID_TIME');\n    require(tempContract.sender == msg.sender, 'INVALID_SENDER');\n    _;\n  }\n\n  function newContract(\n    uint256 inputAmount,\n    uint256 outputAmount,\n    uint256 expiration,\n    bytes32 hashLock,\n    address tokenAddress,\n    address receiver,\n    string memory outputNetwork,\n    string memory outputAddress\n  ) public {\n    address sender = msg.sender;\n\n    require(expiration > block.timestamp, 'INVALID_TIME');\n\n    require(inputAmount > 0, 'INVALID_AMOUNT');\n\n    IERC20(tokenAddress).safeTransferFrom(sender, address(this), inputAmount);\n\n    bytes32 id = sha256(\n      abi.encodePacked(sender, receiver, inputAmount, hashLock, expiration)\n    );\n\n    contracts[id] = LockContract(\n      inputAmount,\n      outputAmount,\n      expiration,\n      hashLock,\n      SwapStatus.ACTIVE,\n      tokenAddress,\n      sender,\n      receiver,\n      outputNetwork,\n      outputAddress\n    );\n\n    emit NewContract(\n      inputAmount,\n      outputAmount,\n      expiration,\n      id,\n      hashLock,\n      tokenAddress,\n      sender,\n      receiver,\n      outputNetwork,\n      outputAddress\n    );\n  }\n\n  function withdraw(bytes32 id, bytes32 secret, address tokenAddress)\n    public\n    withdrawable(id, secret, tokenAddress)\n    returns (bool)\n  {\n    LockContract storage c = contracts[id];\n    c.status = SwapStatus.WITHDRAWN;\n    IERC20(tokenAddress).safeTransfer(c.receiver, c.inputAmount);\n    emit Withdraw(id, secret, c.hashLock, tokenAddress, c.sender, c.receiver);\n    return true;\n  }\n\n  function refund(bytes32 id, address tokenAddress) external refundable(id, tokenAddress) returns (bool) {\n    LockContract storage c = contracts[id];\n    c.status = SwapStatus.REFUNDED;\n    IERC20(tokenAddress).safeTransfer(c.sender, c.inputAmount);\n    emit Refund(id, c.hashLock, tokenAddress, c.sender, c.receiver);\n    return true;\n  }\n\n  function getStatus(bytes32[] memory ids)\n    public\n    view\n    returns (uint8[] memory)\n  {\n    uint8[] memory result = new uint8[](ids.length);\n\n    for (uint256 index = 0; index < ids.length; index++) {\n      result[index] = getStatus(ids[index]);\n    }\n\n    return result;\n  }\n\n  function getStatus(bytes32 id) public view returns (uint8 result) {\n    LockContract memory tempContract = contracts[id];\n\n    if (\n      tempContract.status == SwapStatus.ACTIVE &&\n      tempContract.expiration < block.timestamp\n    ) {\n      result = uint8(SwapStatus.EXPIRED);\n    } else {\n      result = uint8(tempContract.status);\n    }\n  }\n}\n",
  "sourcePath": "/home/kraykov/kraykov/jelly-swap-github/jelly-erc20-htlc/contracts/HashTimeLock.sol",
  "compiler": {
    "name": "solc",
    "version": "0.5.16+commit.9c3226ce.Linux.g++"
  },
  "schemaVersion": "3.0.3",
  "updatedAt": "2020-01-19T12:45:10.247Z",
  "devdoc": {
    "methods": {}
  },
  "userdoc": {
    "methods": {}
  }
}