{
  "contractName": "HashTimeLock",
  "abi": [
    {
      "anonymous": false,
      "inputs": [
        {
          "indexed": false,
          "internalType": "uint256",
          "name": "inputAmount",
          "type": "uint256"
        },
        {
          "indexed": false,
          "internalType": "uint256",
          "name": "outputAmount",
          "type": "uint256"
        },
        {
          "indexed": false,
          "internalType": "uint256",
          "name": "expiration",
          "type": "uint256"
        },
        {
          "indexed": false,
          "internalType": "bytes32",
          "name": "id",
          "type": "bytes32"
        },
        {
          "indexed": false,
          "internalType": "bytes32",
          "name": "hashLock",
          "type": "bytes32"
        },
        {
          "indexed": true,
          "internalType": "address",
          "name": "tokenAddress",
          "type": "address"
        },
        {
          "indexed": true,
          "internalType": "address",
          "name": "sender",
          "type": "address"
        },
        {
          "indexed": true,
          "internalType": "address",
          "name": "receiver",
          "type": "address"
        },
        {
          "indexed": false,
          "internalType": "string",
          "name": "outputNetwork",
          "type": "string"
        },
        {
          "indexed": false,
          "internalType": "string",
          "name": "outputAddress",
          "type": "string"
        }
      ],
      "name": "NewContract",
      "type": "event"
    },
    {
      "anonymous": false,
      "inputs": [
        {
          "indexed": false,
          "internalType": "bytes32",
          "name": "id",
          "type": "bytes32"
        },
        {
          "indexed": false,
          "internalType": "bytes32",
          "name": "hashLock",
          "type": "bytes32"
        },
        {
          "indexed": true,
          "internalType": "address",
          "name": "tokenAddress",
          "type": "address"
        },
        {
          "indexed": true,
          "internalType": "address",
          "name": "sender",
          "type": "address"
        },
        {
          "indexed": true,
          "internalType": "address",
          "name": "receiver",
          "type": "address"
        }
      ],
      "name": "Refund",
      "type": "event"
    },
    {
      "anonymous": false,
      "inputs": [
        {
          "indexed": false,
          "internalType": "bytes32",
          "name": "id",
          "type": "bytes32"
        },
        {
          "indexed": false,
          "internalType": "bytes32",
          "name": "secret",
          "type": "bytes32"
        },
        {
          "indexed": false,
          "internalType": "bytes32",
          "name": "hashLock",
          "type": "bytes32"
        },
        {
          "indexed": true,
          "internalType": "address",
          "name": "tokenAddress",
          "type": "address"
        },
        {
          "indexed": true,
          "internalType": "address",
          "name": "sender",
          "type": "address"
        },
        {
          "indexed": true,
          "internalType": "address",
          "name": "receiver",
          "type": "address"
        }
      ],
      "name": "Withdraw",
      "type": "event"
    },
    {
      "constant": true,
      "inputs": [
        {
          "internalType": "bytes32",
          "name": "",
          "type": "bytes32"
        }
      ],
      "name": "contracts",
      "outputs": [
        {
          "internalType": "uint256",
          "name": "inputAmount",
          "type": "uint256"
        },
        {
          "internalType": "uint256",
          "name": "outputAmount",
          "type": "uint256"
        },
        {
          "internalType": "uint256",
          "name": "expiration",
          "type": "uint256"
        },
        {
          "internalType": "bytes32",
          "name": "hashLock",
          "type": "bytes32"
        },
        {
          "internalType": "enum HashTimeLock.SwapStatus",
          "name": "status",
          "type": "uint8"
        },
        {
          "internalType": "address",
          "name": "tokenAddress",
          "type": "address"
        },
        {
          "internalType": "address",
          "name": "sender",
          "type": "address"
        },
        {
          "internalType": "address",
          "name": "receiver",
          "type": "address"
        },
        {
          "internalType": "string",
          "name": "outputNetwork",
          "type": "string"
        },
        {
          "internalType": "string",
          "name": "outputAddress",
          "type": "string"
        }
      ],
      "payable": false,
      "stateMutability": "view",
      "type": "function"
    },
    {
      "constant": false,
      "inputs": [
        {
          "internalType": "uint256",
          "name": "inputAmount",
          "type": "uint256"
        },
        {
          "internalType": "uint256",
          "name": "outputAmount",
          "type": "uint256"
        },
        {
          "internalType": "uint256",
          "name": "expiration",
          "type": "uint256"
        },
        {
          "internalType": "bytes32",
          "name": "hashLock",
          "type": "bytes32"
        },
        {
          "internalType": "address",
          "name": "tokenAddress",
          "type": "address"
        },
        {
          "internalType": "address",
          "name": "receiver",
          "type": "address"
        },
        {
          "internalType": "string",
          "name": "outputNetwork",
          "type": "string"
        },
        {
          "internalType": "string",
          "name": "outputAddress",
          "type": "string"
        }
      ],
      "name": "newContract",
      "outputs": [],
      "payable": false,
      "stateMutability": "nonpayable",
      "type": "function"
    },
    {
      "constant": false,
      "inputs": [
        {
          "internalType": "bytes32",
          "name": "id",
          "type": "bytes32"
        },
        {
          "internalType": "bytes32",
          "name": "secret",
          "type": "bytes32"
        },
        {
          "internalType": "address",
          "name": "tokenAddress",
          "type": "address"
        }
      ],
      "name": "withdraw",
      "outputs": [
        {
          "internalType": "bool",
          "name": "",
          "type": "bool"
        }
      ],
      "payable": false,
      "stateMutability": "nonpayable",
      "type": "function"
    },
    {
      "constant": false,
      "inputs": [
        {
          "internalType": "bytes32",
          "name": "id",
          "type": "bytes32"
        },
        {
          "internalType": "address",
          "name": "tokenAddress",
          "type": "address"
        }
      ],
      "name": "refund",
      "outputs": [
        {
          "internalType": "bool",
          "name": "",
          "type": "bool"
        }
      ],
      "payable": false,
      "stateMutability": "nonpayable",
      "type": "function"
    },
    {
      "constant": true,
      "inputs": [
        {
          "internalType": "bytes32",
          "name": "id",
          "type": "bytes32"
        }
      ],
      "name": "getContract",
      "outputs": [
        {
          "components": [
            {
              "internalType": "uint256",
              "name": "inputAmount",
              "type": "uint256"
            },
            {
              "internalType": "uint256",
              "name": "outputAmount",
              "type": "uint256"
            },
            {
              "internalType": "uint256",
              "name": "expiration",
              "type": "uint256"
            },
            {
              "internalType": "bytes32",
              "name": "hashLock",
              "type": "bytes32"
            },
            {
              "internalType": "enum HashTimeLock.SwapStatus",
              "name": "status",
              "type": "uint8"
            },
            {
              "internalType": "address",
              "name": "tokenAddress",
              "type": "address"
            },
            {
              "internalType": "address",
              "name": "sender",
              "type": "address"
            },
            {
              "internalType": "address",
              "name": "receiver",
              "type": "address"
            },
            {
              "internalType": "string",
              "name": "outputNetwork",
              "type": "string"
            },
            {
              "internalType": "string",
              "name": "outputAddress",
              "type": "string"
            }
          ],
          "internalType": "struct HashTimeLock.LockContract",
          "name": "",
          "type": "tuple"
        }
      ],
      "payable": false,
      "stateMutability": "view",
      "type": "function"
    },
    {
      "constant": true,
      "inputs": [
        {
          "internalType": "bytes32",
          "name": "id",
          "type": "bytes32"
        }
      ],
      "name": "contractExists",
      "outputs": [
        {
          "internalType": "bool",
          "name": "",
          "type": "bool"
        }
      ],
      "payable": false,
      "stateMutability": "view",
      "type": "function"
    },
    {
      "constant": true,
      "inputs": [
        {
          "internalType": "bytes32[]",
          "name": "ids",
          "type": "bytes32[]"
        }
      ],
      "name": "getStatus",
      "outputs": [
        {
          "internalType": "uint8[]",
          "name": "",
          "type": "uint8[]"
        }
      ],
      "payable": false,
      "stateMutability": "view",
      "type": "function"
    },
    {
      "constant": true,
      "inputs": [
        {
          "internalType": "bytes32",
          "name": "id",
          "type": "bytes32"
        }
      ],
      "name": "getStatus",
      "outputs": [
        {
          "internalType": "uint8",
          "name": "result",
          "type": "uint8"
        }
      ],
      "payable": false,
      "stateMutability": "view",
      "type": "function"
    }
  ],
  "bytecode": "0x608060405234801561001057600080fd5b50611f07806100206000396000f3fe608060405234801561001057600080fd5b50600436106100885760003560e01c8063a65b9a601161005b578063a65b9a6014610109578063d2fd8b761461011c578063e16c7d9814610131578063ec56a3731461015157610088565b80632f21a6631461008d57806345b4032c146100b65780635de28ae0146100d65780636c8244b8146100f6575b600080fd5b6100a061009b3660046114fc565b61017a565b6040516100ad9190611b70565b60405180910390f35b6100c96100c436600461158b565b610202565b6040516100ad9190611b81565b6100e96100e436600461154f565b610546565b6040516100ad9190611d70565b6100c961010436600461154f565b61077a565b6100c96101173660046115c5565b6107a6565b61012f61012a366004611612565b610b47565b005b61014461013f36600461154f565b610df4565b6040516100ad9190611c48565b61016461015f36600461154f565b610fe1565b6040516100ad9a99989796959493929190611cce565b60608082516040519080825280602002602001820160405280156101a8578160200160208202803883390190505b50905060005b83518110156101f9576101d38482815181106101c657fe5b6020026020010151610546565b8282815181106101df57fe5b60ff909216602092830291909101909101526001016101ae565b5090505b919050565b6000828261020e6112fc565b60008084815260200190815260200160002060405180610140016040529081600082015481526020016001820154815260200160028201548152602001600382015481526020016004820160009054906101000a900460ff16600481111561027257fe5b600481111561027d57fe5b81526004820154610100908190046001600160a01b0390811660208085019190915260058501548216604080860191909152600686015490921660608501526007850180548351600260018316159096026000190190911694909404601f810183900483028501830190935282845260809094019391908301828280156103455780601f1061031a57610100808354040283529160200191610345565b820191906000526020600020905b81548152906001019060200180831161032857829003601f168201915b505050918352505060088201805460408051602060026001851615610100026000190190941693909304601f81018490048402820184019092528181529382019392918301828280156103d95780601f106103ae576101008083540402835291602001916103d9565b820191906000526020600020905b8154815290600101906020018083116103bc57829003601f168201915b5050505050815250509050816001600160a01b03168160a001516001600160a01b0316146104225760405162461bcd60e51b815260040161041990611bc8565b60405180910390fd5b60018160800151600481111561043457fe5b146104515760405162461bcd60e51b815260040161041990611be8565b42816040015111156104755760405162461bcd60e51b815260040161041990611bf8565b60c08101516001600160a01b031633146104a15760405162461bcd60e51b815260040161041990611c08565b600086815260208190526040902060048101805460ff19166002179055600581015481546104dd916001600160a01b0389811692911690611153565b6006810154600582015460038301546040516001600160a01b0393841693928316928a16917f0d4cdc2fe2a785f03bf5481e13bee5cdcb7743166bcadafebfd3f09db61081179161052f918d91611b8f565b60405180910390a460019450505b50505092915050565b60006105506112fc565b60008084815260200190815260200160002060405180610140016040529081600082015481526020016001820154815260200160028201548152602001600382015481526020016004820160009054906101000a900460ff1660048111156105b457fe5b60048111156105bf57fe5b81526004820154610100908190046001600160a01b0390811660208085019190915260058501548216604080860191909152600686015490921660608501526007850180548351600260018316159096026000190190911694909404601f810183900483028501830190935282845260809094019391908301828280156106875780601f1061065c57610100808354040283529160200191610687565b820191906000526020600020905b81548152906001019060200180831161066a57829003601f168201915b505050918352505060088201805460408051602060026001851615610100026000190190941693909304601f810184900484028201840190925281815293820193929183018282801561071b5780601f106106f05761010080835404028352916020019161071b565b820191906000526020600020905b8154815290600101906020018083116106fe57829003601f168201915b50505050508152505090506001600481111561073357fe5b8160800151600481111561074357fe5b1480156107535750428160400151105b156107615760049150610774565b8060800151600481111561077157fe5b91505b50919050565b600080600083815260208190526040902060049081015460ff169081111561079e57fe5b141592915050565b60008383836107b36112fc565b60008085815260200190815260200160002060405180610140016040529081600082015481526020016001820154815260200160028201548152602001600382015481526020016004820160009054906101000a900460ff16600481111561081757fe5b600481111561082257fe5b81526004820154610100908190046001600160a01b0390811660208085019190915260058501548216604080860191909152600686015490921660608501526007850180548351600260018316159096026000190190911694909404601f810183900483028501830190935282845260809094019391908301828280156108ea5780601f106108bf576101008083540402835291602001916108ea565b820191906000526020600020905b8154815290600101906020018083116108cd57829003601f168201915b505050918352505060088201805460408051602060026001851615610100026000190190941693909304601f810184900484028201840190925281815293820193929183018282801561097e5780601f106109535761010080835404028352916020019161097e565b820191906000526020600020905b81548152906001019060200180831161096157829003601f168201915b5050505050815250509050816001600160a01b03168160a001516001600160a01b0316146109be5760405162461bcd60e51b815260040161041990611bc8565b6001816080015160048111156109d057fe5b146109ed5760405162461bcd60e51b815260040161041990611be8565b42816040015111610a105760405162461bcd60e51b815260040161041990611bf8565b600283604051602001610a239190611b05565b60408051601f1981840301815290829052610a3d91611b1a565b602060405180830381855afa158015610a5a573d6000803e3d6000fd5b5050506040513d601f19601f82011682018060405250610a7d919081019061156d565b816060015114610a9f5760405162461bcd60e51b815260040161041990611bb8565b600088815260208190526040902060048101805460ff1916600317905560068101548154610adb916001600160a01b038a811692911690611153565b6006810154600582015460038301546040516001600160a01b0393841693928316928b16917fbab3eb11a71b2cd82a010d4d5b2c3df5cd25ee8c9f1a75baff879a1b87942cb891610b30918f918f9190611b9d565b60405180910390a450600198975050505050505050565b33428711610b675760405162461bcd60e51b815260040161041990611bf8565b60008911610b875760405162461bcd60e51b815260040161041990611c28565b610ba26001600160a01b03861682308c63ffffffff6111b116565b6000600282868c8a8c604051602001610bbf959493929190611aac565b60408051601f1981840301815290829052610bd991611b1a565b602060405180830381855afa158015610bf6573d6000803e3d6000fd5b5050506040513d601f19601f82011682018060405250610c19919081019061156d565b90506040518061014001604052808b81526020018a815260200189815260200188815260200160016004811115610c4c57fe5b8152602001876001600160a01b03168152602001836001600160a01b03168152602001866001600160a01b03168152602001858152602001848152506000808381526020019081526020016000206000820151816000015560208201518160010155604082015181600201556060820151816003015560808201518160040160006101000a81548160ff02191690836004811115610ce657fe5b021790555060a08201516004820180546001600160a01b03928316610100908102610100600160a81b03199092169190911790915560c08401516005840180549184166001600160a01b031992831617905560e0850151600685018054919094169116179091558201518051610d6691600784019160209091019061136a565b506101208201518051610d8391600884019160209091019061136a565b50905050846001600160a01b0316826001600160a01b0316876001600160a01b03167f448581ece7da63e54a320119f9f2b80c868a954c441e70c88ecdfc95919751248d8d8d878e8c8c604051610de09796959493929190611c59565b60405180910390a450505050505050505050565b610dfc6112fc565b610e046112fc565b60008084815260200190815260200160002060405180610140016040529081600082015481526020016001820154815260200160028201548152602001600382015481526020016004820160009054906101000a900460ff166004811115610e6857fe5b6004811115610e7357fe5b81526004820154610100908190046001600160a01b0390811660208085019190915260058501548216604080860191909152600686015490921660608501526007850180548351600260018316159096026000190190911694909404601f81018390048302850183019093528284526080909401939190830182828015610f3b5780601f10610f1057610100808354040283529160200191610f3b565b820191906000526020600020905b815481529060010190602001808311610f1e57829003601f168201915b505050918352505060088201805460408051602060026001851615610100026000190190941693909304601f8101849004840282018401909252818152938201939291830182828015610fcf5780601f10610fa457610100808354040283529160200191610fcf565b820191906000526020600020905b815481529060010190602001808311610fb257829003601f168201915b50505091909252509195945050505050565b600060208181529181526040908190208054600180830154600280850154600386015460048701546005880154600689015460078a0180548c516101009a8216158b026000190190911697909704601f81018e90048e0288018e01909c528b8752989b969a9499939860ff8416989093046001600160a01b0390811697928116969116949092918301828280156110b95780601f1061108e576101008083540402835291602001916110b9565b820191906000526020600020905b81548152906001019060200180831161109c57829003601f168201915b5050505060088301805460408051602060026001851615610100026000190190941693909304601f81018490048402820184019092528181529495949350908301828280156111495780601f1061111e57610100808354040283529160200191611149565b820191906000526020600020905b81548152906001019060200180831161112c57829003601f168201915b505050505090508a565b6040516111ac90849063a9059cbb60e01b906111759086908690602401611b55565b60408051601f198184030181529190526020810180516001600160e01b03166001600160e01b0319909316929092179091526111db565b505050565b6040516111d59085906323b872dd60e01b9061117590879087908790602401611b2d565b50505050565b6111ed826001600160a01b03166112c0565b6112095760405162461bcd60e51b815260040161041990611c38565b60006060836001600160a01b0316836040516112259190611b1a565b6000604051808303816000865af19150503d8060008114611262576040519150601f19603f3d011682016040523d82523d6000602084013e611267565b606091505b5091509150816112895760405162461bcd60e51b815260040161041990611bd8565b8051156111d557808060200190516112a49190810190611531565b6111d55760405162461bcd60e51b815260040161041990611c18565b6000813f7fc5d2460186f7233c927e7db2dcc703c0e500b653ca82273b7bfad8045d85a47081158015906112f45750808214155b949350505050565b604080516101408101825260008082526020820181905291810182905260608101829052906080820190815260200160006001600160a01b0316815260200160006001600160a01b0316815260200160006001600160a01b0316815260200160608152602001606081525090565b828054600181600116156101000203166002900490600052602060002090601f016020900481019282601f106113ab57805160ff19168380011785556113d8565b828001600101855582156113d8579182015b828111156113d85782518255916020019190600101906113bd565b506113e49291506113e8565b5090565b61140291905b808211156113e457600081556001016113ee565b90565b803561141081611e9e565b92915050565b600082601f83011261142757600080fd5b813561143a61143582611da5565b611d7e565b9150818183526020840193506020810190508385602084028201111561145f57600080fd5b60005b8381101561148b578161147588826114a0565b8452506020928301929190910190600101611462565b5050505092915050565b805161141081611eb2565b803561141081611ebb565b805161141081611ebb565b600082601f8301126114c757600080fd5b81356114d561143582611dc6565b915080825260208301602083018583830111156114f157600080fd5b61053d838284611e38565b60006020828403121561150e57600080fd5b813567ffffffffffffffff81111561152557600080fd5b6112f484828501611416565b60006020828403121561154357600080fd5b60006112f48484611495565b60006020828403121561156157600080fd5b60006112f484846114a0565b60006020828403121561157f57600080fd5b60006112f484846114ab565b6000806040838503121561159e57600080fd5b60006115aa85856114a0565b92505060206115bb85828601611405565b9150509250929050565b6000806000606084860312156115da57600080fd5b60006115e686866114a0565b93505060206115f7868287016114a0565b925050604061160886828701611405565b9150509250925092565b600080600080600080600080610100898b03121561162f57600080fd5b600061163b8b8b6114a0565b985050602061164c8b828c016114a0565b975050604061165d8b828c016114a0565b965050606061166e8b828c016114a0565b955050608061167f8b828c01611405565b94505060a06116908b828c01611405565b93505060c089013567ffffffffffffffff8111156116ad57600080fd5b6116b98b828c016114b6565b92505060e089013567ffffffffffffffff8111156116d657600080fd5b6116e28b828c016114b6565b9150509295985092959890939650565b60006116fe8383611aa3565b505060200190565b61170f81611e01565b82525050565b61170f61172182611e01565b611e70565b600061173182611df4565b61173b8185611df8565b935061174683611dee565b8060005b8381101561177457815161175e88826116f2565b975061176983611dee565b92505060010161174a565b509495945050505050565b61170f81611e0c565b61170f81611402565b61170f61179d82611402565b611402565b60006117ad82611df4565b6117b781856101fd565b93506117c7818560208601611e44565b9290920192915050565b61170f81611e2d565b60006117e582611df4565b6117ef8185611df8565b93506117ff818560208601611e44565b61180881611e81565b9093019392505050565b600061181f600e83611df8565b6d1253959053125117d4d150d4915560921b815260200192915050565b6000611849600d83611df8565b6c24a72b20a624a22faa27a5a2a760991b815260200192915050565b6000611872602083611df8565b7f5361666545524332303a206c6f772d6c6576656c2063616c6c206661696c6564815260200192915050565b60006118ab600f83611df8565b6e535741505f4e4f545f41435449564560881b815260200192915050565b60006118d6600c83611df8565b6b494e56414c49445f54494d4560a01b815260200192915050565b60006118fe600e83611df8565b6d24a72b20a624a22fa9a2a72222a960911b815260200192915050565b6000611928602a83611df8565b7f5361666545524332303a204552433230206f7065726174696f6e20646964206e8152691bdd081cdd58d8d9595960b21b602082015260400192915050565b6000611974600e83611df8565b6d1253959053125117d05353d5539560921b815260200192915050565b600061199e601f83611df8565b7f5361666545524332303a2063616c6c20746f206e6f6e2d636f6e747261637400815260200192915050565b80516000906101408401906119df8582611788565b5060208301516119f26020860182611788565b506040830151611a056040860182611788565b506060830151611a186060860182611788565b506080830151611a2b60808601826117d1565b5060a0830151611a3e60a0860182611706565b5060c0830151611a5160c0860182611706565b5060e0830151611a6460e0860182611706565b50610100830151848203610100860152611a7e82826117da565b915050610120830151848203610120860152611a9a82826117da565b95945050505050565b61170f81611e27565b6000611ab88288611715565b601482019150611ac88287611715565b601482019150611ad88286611791565b602082019150611ae88285611791565b602082019150611af88284611791565b5060200195945050505050565b6000611b118284611791565b50602001919050565b6000611b2682846117a2565b9392505050565b60608101611b3b8286611706565b611b486020830185611706565b6112f46040830184611788565b60408101611b638285611706565b611b266020830184611788565b60208082528101611b268184611726565b60208101611410828461177f565b60408101611b638285611788565b60608101611bab8286611788565b611b486020830185611788565b6020808252810161141081611812565b602080825281016114108161183c565b6020808252810161141081611865565b602080825281016114108161189e565b60208082528101611410816118c9565b60208082528101611410816118f1565b602080825281016114108161191b565b6020808252810161141081611967565b6020808252810161141081611991565b60208082528101611b2681846119ca565b60e08101611c67828a611788565b611c746020830189611788565b611c816040830188611788565b611c8e6060830187611788565b611c9b6080830186611788565b81810360a0830152611cad81856117da565b905081810360c0830152611cc181846117da565b9998505050505050505050565b6101408101611cdd828d611788565b611cea602083018c611788565b611cf7604083018b611788565b611d04606083018a611788565b611d1160808301896117d1565b611d1e60a0830188611706565b611d2b60c0830187611706565b611d3860e0830186611706565b818103610100830152611d4b81856117da565b9050818103610120830152611d6081846117da565b9c9b505050505050505050505050565b602081016114108284611aa3565b60405181810167ffffffffffffffff81118282101715611d9d57600080fd5b604052919050565b600067ffffffffffffffff821115611dbc57600080fd5b5060209081020190565b600067ffffffffffffffff821115611ddd57600080fd5b506020601f91909101601f19160190565b60200190565b5190565b90815260200190565b600061141082611e1b565b151590565b806101fd81611e91565b6001600160a01b031690565b60ff1690565b600061141082611e11565b82818337506000910152565b60005b83811015611e5f578181015183820152602001611e47565b838111156111d55750506000910152565b600061141082600061141082611e8b565b601f01601f191690565b60601b90565b60058110611e9b57fe5b50565b611ea781611e01565b8114611e9b57600080fd5b611ea781611e0c565b611ea78161140256fea365627a7a72315820edd0c40ca0a0244e1aa29420591a872483c8baec4f25174853a664bf54f4dc9f6c6578706572696d656e74616cf564736f6c634300050e0040",
  "source": "pragma experimental ABIEncoderV2;\npragma solidity >=0.5.5 <0.6.0;\n\nimport \"@openzeppelin/contracts/token/ERC20/SafeERC20.sol\";\n\ncontract HashTimeLock {\n  using SafeERC20 for IERC20;\n\n  mapping(bytes32 => LockContract) public contracts;\n\n  enum SwapStatus { INVALID, ACTIVE, REFUNDED, WITHDRAWN, EXPIRED }\n\n  struct LockContract {\n    uint256 inputAmount;\n    uint256 outputAmount;\n    uint256 expiration;\n    bytes32 hashLock;\n    SwapStatus status;\n    address tokenAddress;\n    address sender;\n    address receiver;\n    string outputNetwork;\n    string outputAddress;\n  }\n\n  event Withdraw(\n    bytes32 id,\n    bytes32 secret,\n    bytes32 hashLock,\n    address indexed tokenAddress,\n    address indexed sender,\n    address indexed receiver\n  );\n\n  event Refund(\n    bytes32 id,\n    bytes32 hashLock,\n    address indexed tokenAddress,\n    address indexed sender,\n    address indexed receiver\n  );\n\n  event NewContract(\n    uint256 inputAmount,\n    uint256 outputAmount,\n    uint256 expiration,\n    bytes32 id,\n    bytes32 hashLock,\n    address indexed tokenAddress,\n    address indexed sender,\n    address indexed receiver,\n    string outputNetwork,\n    string outputAddress\n  );\n\n  modifier withdrawable(bytes32 id, bytes32 secret, address tokenAddress) {\n    LockContract memory tempContract = contracts[id];\n    require(tempContract.tokenAddress == tokenAddress, 'INVALID_TOKEN');\n    require(tempContract.status == SwapStatus.ACTIVE, 'SWAP_NOT_ACTIVE');\n    require(tempContract.expiration > block.timestamp, 'INVALID_TIME');\n    require(\n      tempContract.hashLock == sha256(abi.encodePacked(secret)),\n      'INVALID_SECRET'\n    );\n    _;\n  }\n\n  modifier refundable(bytes32 id, address tokenAddress) {\n    LockContract memory tempContract = contracts[id];\n    require(tempContract.tokenAddress == tokenAddress, 'INVALID_TOKEN');\n    require(tempContract.status == SwapStatus.ACTIVE, 'SWAP_NOT_ACTIVE');\n    require(tempContract.expiration <= block.timestamp, 'INVALID_TIME');\n    require(tempContract.sender == msg.sender, 'INVALID_SENDER');\n    _;\n  }\n\n  function newContract(\n    uint256 inputAmount,\n    uint256 outputAmount,\n    uint256 expiration,\n    bytes32 hashLock,\n    address tokenAddress,\n    address receiver,\n    string memory outputNetwork,\n    string memory outputAddress\n  ) public {\n    address sender = msg.sender;\n\n    require(expiration > block.timestamp, 'INVALID_TIME');\n\n    require(inputAmount > 0, 'INVALID_AMOUNT');\n\n    IERC20(tokenAddress).safeTransferFrom(sender, address(this), inputAmount);\n\n    bytes32 id = sha256(\n      abi.encodePacked(sender, receiver, inputAmount, hashLock, expiration)\n    );\n\n    contracts[id] = LockContract(\n      inputAmount,\n      outputAmount,\n      expiration,\n      hashLock,\n      SwapStatus.ACTIVE,\n      tokenAddress,\n      sender,\n      receiver,\n      outputNetwork,\n      outputAddress\n    );\n\n    emit NewContract(\n      inputAmount,\n      outputAmount,\n      expiration,\n      id,\n      hashLock,\n      tokenAddress,\n      sender,\n      receiver,\n      outputNetwork,\n      outputAddress\n    );\n  }\n\n  function withdraw(bytes32 id, bytes32 secret, address tokenAddress)\n    public\n    withdrawable(id, secret, tokenAddress)\n    returns (bool)\n  {\n    LockContract storage c = contracts[id];\n    c.status = SwapStatus.WITHDRAWN;\n    IERC20(tokenAddress).safeTransfer(c.receiver, c.inputAmount);\n    emit Withdraw(id, secret, c.hashLock, tokenAddress, c.sender, c.receiver);\n    return true;\n  }\n\n  function refund(bytes32 id, address tokenAddress) external refundable(id, tokenAddress) returns (bool) {\n    LockContract storage c = contracts[id];\n    c.status = SwapStatus.REFUNDED;\n    IERC20(tokenAddress).safeTransfer(c.sender, c.inputAmount);\n    emit Refund(id, c.hashLock, tokenAddress, c.sender, c.receiver);\n    return true;\n  }\n\n  function getContract(bytes32 id) public view returns (LockContract memory) {\n    LockContract memory c = contracts[id];\n    return c;\n  }\n\n  function contractExists(bytes32 id) public view returns (bool) {\n    return contracts[id].status != SwapStatus.INVALID;\n  }\n\n  function getStatus(bytes32[] memory ids)\n    public\n    view\n    returns (uint8[] memory)\n  {\n    uint8[] memory result = new uint8[](ids.length);\n\n    for (uint256 index = 0; index < ids.length; index++) {\n      result[index] = getStatus(ids[index]);\n    }\n\n    return result;\n  }\n\n  function getStatus(bytes32 id) public view returns (uint8 result) {\n    LockContract memory tempContract = contracts[id];\n\n    if (\n      tempContract.status == SwapStatus.ACTIVE &&\n      tempContract.expiration < block.timestamp\n    ) {\n      result = uint8(SwapStatus.EXPIRED);\n    } else {\n      result = uint8(tempContract.status);\n    }\n  }\n}\n",
  "sourcePath": "/home/arthas/work/erc20-jelly-htlc/contracts/HashTimeLock.sol",
  "compiler": {
    "name": "solc",
    "version": "0.5.14+commit.01f1aaa4.Emscripten.clang"
  },
  "schemaVersion": "3.0.19",
  "updatedAt": "2019-12-20T17:05:53.298Z",
  "devdoc": {
    "methods": {}
  },
  "userdoc": {
    "methods": {}
  }
}